:1000000012C02CC02BC02AC029C028C027C026C0BF
:1000100025C024C023C022C021C020C01FC01EC0D4
:100020001DC01CC01BC011241FBECFE5D4E0DEBF25
:10003000CDBF10E0A0E6B0E0EEE6F7E102C005902B
:100040000D92A63CB107D9F710E0A6ECB0E001C0D4
:100050001D92A73CB107E1F780D387CBD1CF262FE4
:10006000372F821793070CF49C01822F932F08954A
:10007000262F372F281739070CF49C01822F932F36
:1000800008950F931F93CF93DF93CDB7DEB7A89753
:100090000FB6F894DEBF0FBECDBF28E2E0E6F0E079
:1000A000DE01119601900D922A95E1F78A309105B3
:1000B00060F4FC01EE0FFF1FEE0FFF1FEC0FFD1FA2
:1000C000018112812381348104C001E010E020E02D
:1000D00030E0602F712F822F932FA8960FB6F894DF
:1000E000DEBF0FBECDBFDF91CF911F910F9108955D
:1000F00022E3AC01249FC001259F900D11249C0197
:1001000021503109181619064CF48FE39CE9019728
:10011000F1F700C0000021503109B8F70895161614
:10012000170618061906DCF56A3071058105910578
:10013000CCF16436710581059105BCF1683E23E080
:10014000720781059105A4F1603127E272078105EC
:1001500091058CF1603A26E8720721E0820791054B
:100160006CF1603422E472072FE0820791054CF1B4
:10017000603826E9720728E9820791052CF161159C
:1001800021EE720725EF820725E0920704F1611541
:100190007A4C8A499B43F4F428E030E01DC020E00B
:1001A00030E01AC020E030E017C021E030E014C099
:1001B00022E030E011C023E030E00EC024E030E067
:1001C0000BC025E030E008C026E030E005C027E0A5
:1001D00030E002C029E030E0822F932F089582B3EF
:1001E0008F7182BB82B3807F82BB81B3807F81BBF2
:1001F000969A979A85E08A95F1F700008399FECF49
:1002000097980895CF93DF93C82FD62F4111E7DF3A
:1002100082B38F7182BB81B38F6081BB82B3807FD9
:1002200082BB82B390E2D99FB0011124682B62BBDC
:1002300082B39C2F92959F70892B82BB979A979837
:1002400082B3807F82BB82B3CF70C82BC2BB979A28
:10025000979882B3807F82BBDF91CF91089592B34C
:100260009F7192BB92B3907F92BB91B3907F91BBF1
:1002700022B330E2839FC0011124822B82BB969A65
:10028000979A80B39798979A20B3979890E1299F6F
:10029000900111248F70822B089541E060E081E08D
:1002A000B1DF0895662311F090E401C090E0890F5A
:1002B00041E060E08068A6DF0895CF93DF93EC0112
:1002C0008881882339F0219641E061E09BDF8991A4
:1002D0008111FACFDF91CF9108952F923F924F92E3
:1002E0005F927F928F929F92AF92BF92CF92DF9256
:1002F000EF92FF920F931F93CF93DF936B017C01DB
:10030000542EE90120E030E0A90113D788236CF4D2
:1003100041E061E08DE276DFC701B60190588BD7EE
:10032000062F172F282F392F07C0C701B60183D7F3
:10033000062F172F282F392F0115110521053105FB
:1003400029F0C901B801EBDE8F5F01C081E07C2E8E
:10035000780ECE0196DE17D7A7019601E0D56BD7B0
:10036000B62EA72E982E892E072D10E0C52CD12C45
:10037000C01AD10A81E090E0209711F480E090E06B
:10038000C81AD90AEE24D7FCE094FE2C1C141D04D4
:100390001E041F048CF4212C312C210141E061E06A
:1003A00080E330DF8FEF281A380A480A580A2C14E5
:1003B0003D044E045F0494F3C801019762DE6B01B3
:1003C0007C011616170618061906C4F50F2EFAE05A
:1003D0002F2E312C412C512CF02D6B2D7A2D892D67
:1003E000982DA701960120D941E061E0822F805D20
:1003F00009DF1C161D0654F4872D90E001978C1719
:100400009D0721F441E061E08EE2FCDE6B2D7A2D48
:10041000892D982DA701960107D9B62EA72E982EC3
:10042000892EC701B601A2019101FED869017A01A6
:100430007A9412161306140615067CF2DF91CF91FA
:100440001F910F91FF90EF90DF90CF90BF90AF90F2
:100450009F908F907F905F904F903F902F90089546
:10046000CF92DF92EF92FF920F931F93CF93DF9380
:10047000EC01E62E009741F0BC01882777FD8095BE
:10048000982F4DDE8F5F01C081E0C82ED12CF12C5A
:10049000EC18FD081E141F045CF400E010E041E0BD
:1004A00061E080E3AFDE0F5F1F4F0E151F05B9F748
:1004B000C6010197E6DD8B0116161706CCF40F2E48
:1004C000FAE0EF2EF12CF02DCE01B8019AD8262FAC
:1004D000C82ED92E41E061E0822F805D93DECC2DC5
:1004E000DD2DC801B7018DD88B011616170664F3F0
:1004F000DF91CF911F910F91FF90EF90DF90CF9000
:100500000895882311F0949A08959498089582B3D9
:100510008F7082BB81B3806F81BB40E060E088E276
:1005200071DE8FE79EE30197F1F700C0000040E025
:1005300060E088E267DE8FE79EE30197F1F700C095
:10054000000041E060E088E25DDE8FE79EE3019716
:10055000F1F700C0000041E060E08EE053DE8FE77D
:100560009EE30197F1F700C0000041E060E086E003
:1005700049DE93DE0895F89487B38C6287BBBC98FC
:1005800080E090E021E030E057B3422F082E01C018
:10059000440F0A94EAF7542B57BB58B3452B48BB7A
:1005A00001968330910581F788B3837C88BB8DB138
:1005B00086658DB91EB87894089548B321E030E07F
:1005C000F90102C0EE0FFF1F6A95E2F7BF012E2F5F
:1005D0002095242328BB292F332727FD3A952FB9AF
:1005E000779BFECF8FB9779BFECF88B3682B68BB14
:1005F0000895CF93DF938E3F2BE0920770F463E072
:1006000070E0FFD7EB01DC5F60E0CE01D6DF61E098
:10061000CE01D3DF62E0CE01D0DFDF91CF9108952C
:10062000AADF60E082E098E1C8DF61E082E098E163
:10063000C4DF62E082E098E1C0DF80E090E0D9DFD3
:10064000089594B341E050E09A01082E02C0220FB1
:10065000331F0A94E2F72095292324BB87B986B17A
:10066000866C86B9349BFECF24B135B1822F932F8F
:10067000089584B3837C84BB85B38C6385BB089564
:1006800093B3909592FF0CC093FF06C094FF06C0F1
:1006900095FD08C093E007C091E005C092E003C05B
:1006A00090E001C094E0882381F023B330E02095EE
:1006B00030952C733327232B41F023B330E0209562
:1006C00030952C733327232BC1F7892F089584B3DA
:1006D0008B7C84BB85B3846385BB089593B390956D
:1006E000892F847379F08091C600882381F010925D
:1006F000C60094FF02C082E001C081E095FF08C0FF
:100700008C5F089581E08093C60080E0089580E0CA
:1007100008958233910584F08634910584F0883CF5
:10072000910584F08C3221E092077CF0843F914067
:100730007CF424E630E00EC021E030E00BC02AE07B
:1007400030E008C024E130E005C022E330E002C020
:1007500028EC30E0822F932F0895CF93DF93CDB70D
:10076000DEB727970FB6F894DEBF0FBECDBFCFDE42
:10077000AEDF56DF81E0C5DE80E990E09EDD61E01E
:1007800082E090DD80EA90E098DD85E090E0B0DCEA
:1007900084DD1D827724739422242394FF24F39410
:1007A00021E02983812C912C6894AA24A6F86894CE
:1007B000BB24B6F8512C612C412C312C01E010E007
:1007C000C12CD12CDF82CE8268011F2D1111DBC11B
:1007D0002110F0C15BC02DEC3CEC4CE45DE3652DD9
:1007E000762D842D932D4BD321E030E043E075DD51
:1007F00003C08FEA90E061DD83EB90E05EDD77205F
:1008000071F085EB90E059DD21E030E043E0682DA8
:10081000792D8A2D9B2D61DD83EB90E04EDD22202A
:1008200041F161E080E03EDD87EB90E046DD64E091
:100830008E819F8115DE8E819F81009719F08D3FFB
:100840009B4051F461E08FE02DDD8EEB90E035DDD3
:10085000F1E0FD83212C0DC02D81222349F061E0C0
:100860008FE020DD84EC90E028DD1D82212C01C08A
:10087000212C772021F060E08FE014DD03C061E0DF
:100880008AE010DD41E060E08EE0BCDC80E090E0DA
:10089000D8DEBC01882777FD8095982F74D420E09E
:1008A00030E040E251E43BD320E030E040E85AE35E
:1008B00036D3262F372F482F592F31D320E030E061
:1008C00040E05EE32CD3E62EF72E082F192F562E8C
:1008D000672E482E392E772009F489C0762F272FCE
:1008E0003F2D402F512F682D792D8A2D9B2DF7D329
:1008F000181684F5EE81FF81BF01882777FD80956A
:10090000982F41D469837A838B839C83282D392D3A
:100910004A2D5B2D6E2D7F2D802F912FD6D29F7764
:1009200020E030E040E251E4FAD29B01AC01698161
:100930007A818B819C81A3D27ED46E837F832E812A
:100940003F812E3F3B400CF43CC1EDEFFBE0FF83C9
:10095000EE8337C12AE037ED43EA5CE3682D792D59
:100960008A2D9B2D8CD29B01AC016E2D7F2D802F6B
:10097000912FB5D318166CF52E813F81B9018827C8
:1009800077FD8095982FFFD369837A838B839C832F
:10099000282D392D4A2D5B2D6E2D7F2D802F912FE7
:1009A00094D29F7720E030E040E251E4B8D29B013E
:1009B000AC0169817A818B819C8187D23CD46E8322
:1009C0007F838E819F8199230CF0FBC01F821E8242
:1009D000F8C02DEC3CEC4CE45DE3682D792D8A2DBC
:1009E0009B2DA7D388230CF4EAC010E02EC0282D3D
:1009F000392D4A2D5B2D6E2D7F2D802F912F65D2A5
:100A00009F772DEC3CEC4CE45DE369D318168CF435
:100A100020E030E040EF50E46E2D7F2D802F912FAD
:100A20005ED3181644F08E2C9F2CA02EB12E11E010
:100A30000CC010E00AC011E0812C912C0F2EF0EFB9
:100A4000AF2EF02D6894BB24B6F89981992321F03C
:100A50008E819F81CEDD198241DE8230B1F5772013
:100A6000B9F02DEC3CEC4CEC5DE3682D792D8A2D32
:100A70009B2D05D2862E972EA82EB92E20E030E091
:100A800040EF50E42CD318160CF45AC011E072C099
:100A9000C6013FDEEE81FF81E80FF91FFF83EE8381
:100AA000EE3FFB4024F08DEF9BE09F838E8398EE1A
:100AB000C91693E0D9060CF04EC0E2E3CE0ED11C6D
:100AC00022242394F1E0F98355C0813081F5772009
:100AD000A9F02DEC3CEC4CEC5DE3682D792D8A2DD2
:100AE0009B2DF3D1862E972EA82EB92E20E030E034
:100AF000A9011FD38823A4F111E03CC0C60109DE7F
:100B00002E813F81281B390B3F832E83332314F41E
:100B10001F821E8238EEC31633E0D3063CF582E313
:100B2000C80ED11C2224239491E0998323C082FF14
:100B300021C081E07826B1DB2224239411E01AC081
:100B400011E0812C912C0F2EF0EFAF2EF02D689438
:100B5000BB24B6F80FC022242394E1E0E9830AC045
:100B600011E0812C912CA12CB12C04C022242394BF
:100B7000F1E0F98322E0C216D1040CF427CE31E073
:100B8000C31AD10823CE41E060E08CE03BDB60E09B
:100B900081E088DB80EC90E090DB2DE33AE04FE1F0
:100BA00051E4652D762D842D932DC3D288230CF42A
:100BB00012CE1FCE41E060E08CE024DB32CE1F82FB
:100BC0001E822224239411E043CFA4E0B0E0EAEE99
:100BD000F5E07DC57C016A01FC018081823008F46A
:100BE0004AC1FB019081923008F442C1843079F40B
:100BF000943009F040C1F7019181FB018181981780
:100C000009F439C1A8E8EA2EA0E0FA2E34C19430E4
:100C100009F42EC1923091F4823009F02CC188E0A1
:100C2000F701DA0101900D928A95E1F7FB018181CC
:100C3000F70191818923FA0181831CC1823009F473
:100C400017C1F70182819381FB01A281B381F70172
:100C50000481158126813781FB0184809580A680DF
:100C6000B780FC01EA1BFB0BAF01F7FF04C0442770
:100C700055274E1B5F0B403251050CF074C01E16F9
:100C80001F06B4F524013501042E04C07694679440
:100C9000579447940A94D2F749825A826B827C8295
:100CA000412C512C3201439404C0440C551C661C49
:100CB000771C4A95D2F741E0441A5108610871083F
:100CC000482059206A207B20812C912C5401839448
:100CD00045284628472819F4812C912C5401498035
:100CE0005A806B807C8084289528A628B72846C027
:100CF000EF2B09F443C0840F951F28013901042EFE
:100D000004C076946794579447940A94D2F7498222
:100D10005A826B827C82412C512C3201439404C054
:100D2000440C551C661C771C4A95D2F741E0441AC6
:100D3000510861087108402251226222732201E0A9
:100D400010E020E030E045284628472819F400E06C
:100D500010E0980149805A806B807C800429152915
:100D6000262937290BC0A817B90724F4812C912C08
:100D7000540104C0CD0100E010E09801F701418169
:100D8000FB015181451709F446C0442349F0240171
:100D90003501401A510A620A730A9301820104C0A4
:100DA000081919092A093B0937FD05C0F601118206
:100DB000938382830CC041E0F60141839383828355
:100DC00030952095109501951F4F2F4F3F4F04836D
:100DD0001583268337830EC0880F991FAA1FBB1F58
:100DE000F60184839583A683B783828193810197DB
:100DF00093838283F60184819581A681B781AC01BA
:100E0000BD0141505109610971094F3F5F4F6F4F5B
:100E10007F4310F30CC0F601418393838283080D56
:100E2000191D2A1D3B1D048315832683378383E008
:100E3000F6018083448155816681778177FF1AC0EE
:100E4000DB01CA0181709927AA27BB277695679590
:100E500057954795842B952BA62BB72B8483958389
:100E6000A683B7838281938101969383828302C094
:100E70007B0101C07601C7012496E0E144C4A0E2F1
:100E8000B0E0E4E4F7E031C46D8F7E8F8F8F98A3DC
:100E9000298F3A8F4B8F5C8FBE016F5E7F4FCE01E3
:100EA0004D96DFD2BE01675F7F4FCE014996D9D202
:100EB000AE014F5F5F4FBE01675F7F4FCE0141962E
:100EC00084DE05D2A096E2E02CC4A0E2B0E0EAE61F
:100ED000F7E00BC46D8F7E8F8F8F98A3298F3A8F89
:100EE0004B8F5C8FBE016F5E7F4FCE014D96B9D2A6
:100EF000BE01675F7F4FCE014996B3D28A8591E0EC
:100F000089278A87AE014F5F5F4FBE01675F7F4FC2
:100F1000CE0141965ADEDBD1A096E2E002C4A0E207
:100F2000B0E0E4E9F7E0D3C36D8F7E8F8F8F98A395
:100F3000298F3A8F4B8F5C8FBE016F5E7F4FCE0142
:100F40004D968FD2BE01675F7F4FCE01499689D201
:100F50009989923008F412C08985823008F41AC049
:100F6000943021F4823009F4B4C008C0843021F4F4
:100F7000923009F4AEC00EC0923051F481E02A895B
:100F80009A85291301C080E08A8BCE014196A3C0C7
:100F9000823051F481E02A899A85291301C080E0CA
:100FA0008A87CE01099697C08D889E88AF88B88CB5
:100FB0000D851E852F853889E0E2F0E080E090E025
:100FC000DC01C12CD12C760140E050E0BA0180FE5A
:100FD00018C0400F511F621F731F8C0D9D1DAE1D49
:100FE000BF1D412C512C3201439440175107620719
:100FF000730718F0412C512C3201840D951DA61D4C
:10100000B71DCC0CDD1CEE1CFF1C37FF02C0689422
:10101000C0F8000F111F221F331FB694A794979496
:1010200087943197A1F62B893C89EB85FC852E0F9F
:101030003F1F2E5F3F4F3C832B8321E0EA893A8597
:10104000E31301C020E02A83EB81FC810CC080FF08
:1010500005C076956795579547957068B695A7959D
:10106000979587953196B7FDF2CF9F010CC0880FF9
:10107000991FAA1FBB1F77FD8160440F551F661F74
:10108000771F215031090097A105E0E4BE0778F3EE
:101090002B833C838C019D010F7711272227332757
:1010A000003411052105310559F487FD09C0452B90
:1010B000462B472B29F0805C9F4FAF4FBF4F807866
:1010C0008D839E83AF83B88783E08983CE010196A9
:1010D00002C088E890E0FBD0A096E0E114C3A8E14C
:1010E000B0E0E4E7F8E001C36D8B7E8B8F8B988FC7
:1010F000298B3A8B4B8B5C8BBE01675F7F4FCE0198
:101100004596AFD1BE016F5F7F4FCE014196A9D109
:101110008985823050F08981823038F0BE016F5F5E
:101120007F4FCE0109960CD201C08FEF6896E2E0A6
:10113000F8C2A8E1B0E0EEE9F8E0D7C26D8B7E8B93
:101140008F8B988F298B3A8B4B8B5C8BBE01675FA3
:101150007F4FCE01459685D1BE016F5F7F4FCE0197
:1011600041967FD18985823050F08981823038F074
:10117000BE016F5F7F4FCE010996E2D101C081E0D1
:101180006896E2E0CEC2A8E0B0E0E8ECF8E0ABC2DE
:1011900023E029838B019C01002737FD039511274C
:1011A00022273327402F0A83611571058105910598
:1011B00019F482E0898334C02EE130E03C832B8334
:1011C000442371F061157105810520E8920761F1F2
:1011D000002711279801061B170B280B390B02C09B
:1011E0008B019C01C901B801A7D2019718161906F5
:1011F0002CF00D831E832F83388712C0082E04C065
:10120000000F111F221F331F0A94D2F70D831E8374
:101210002F8338872EE130E0281B390B3C832B834A
:10122000CE01019654D004C060E070E080E09FECF5
:101230002896E4E074C2ACE0B0E0E0E2F9E053C22A
:1012400069877A878B879C87BE016F5F7F4FCE014E
:10125000099607D18981823091F1823080F1843002
:1012600041F48A81882331F100E010E020E030E889
:1012700029C02B813C8137FD22C02F3131058CF7ED
:101280008EE190E0821B930B0D811E812F813885AA
:1012900004C036952795179507958A95D2F78A81C8
:1012A000882381F030952095109501951F4F2F4F81
:1012B0003F4F08C00FEF1FEF2FEF3FE703C000E0E5
:1012C00010E09801B801C9012C96E4E028C20F9300
:1012D0001F93CF93DF93DC0114964D915D916D9137
:1012E0007C9117971196EC9111978C91823020F494
:1012F00060618FEF90E0A6C0843009F49EC0823018
:1013000009F495C0411551056105710509F492C0B4
:1013100012962D913C91139722388FEF38070CF0DD
:1013200058C0C2E8DFEFC21BD30BCA31D1056CF540
:101330008A019B010C2E04C03695279517950795B9
:101340000A94D2F781E090E0A0E0B0E00C2E04C057
:10135000880F991FAA1FBB1F0A94D2F70197A109F2
:10136000B10984239523A623B72341E050E060E030
:1013700070E0892B8A2B8B2B19F440E050E0BA01E6
:10138000402B512B622B732B03C040E050E0BA017D
:10139000DB01CA018F779927AA27BB2780349105E3
:1013A000A105B10539F447FF09C0405C5F4F6F4F9D
:1013B0007F4F04C0415C5F4F6F4F7F4F81E090E0F3
:1013C00041155105610520E4720748F580E090E081
:1013D00026C0203831058CF5DB01CA018F779927AB
:1013E000AA27BB2780349105A105B10539F447FF31
:1013F00009C0405C5F4F6F4F7F4F04C0415C5F4F3F
:101400006F4F7F4F77FD04C0C90181589F4F07C0C0
:101410007695679557954795C90180589F4F97E0F6
:1014200076956795579547959A95D1F70BC080E0CB
:1014300090E005C080E090E005C08FEF90E040E0D4
:1014400050E0BA01982F9695E0FB97F9362F80FB74
:1014500037F9642F752F832FDF91CF911F910F9153
:101460000895CF92DF92EF92DC01FB01CC901196B0
:10147000DC90119712968C9112973FE7E32EE822A9
:101480006E2DA60170E0982F991F9927991F13962A
:101490002C91822F880F892B90E027FB222720F99F
:1014A0002183009729F5411551056105710511F456
:1014B00082E027C082E89FEF9383828327E0440F76
:1014C000551F661F771F2A95D1F783E0808309C0D7
:1014D000440F551F661F771F828193810197938365
:1014E000828341155105610580E4780788F320C0A7
:1014F0008F3F910579F4411551056105710519F486
:1015000084E0808319C0E4FE03C081E0808310C0C2
:1015100010820EC08F5791099383828383E080836A
:1015200087E0440F551F661F771F8A95D1F77064B7
:101530004483558366837783EF90DF90CF9008953F
:10154000CF93FC01DB019081923008F452C08C9162
:10155000823008F44EC0943071F4843039F411961E
:101560002C9130E08181281B310948C0818188237A
:1015700009F43FC03BC0843029F411968C9181114D
:1015800038C034C0923019F48230B9F735C0823097
:1015900069F3C18111968C911197C8131DC02281E6
:1015A000338112968D919C911397821793070CF4B7
:1015B00013C0281739070CF417C044815581668180
:1015C000778114968D919D910D90BC91A02D8417DB
:1015D0009507A607B70718F4C11108C00AC0481735
:1015E00059076A077B0740F4C11103C02FEF3FEF93
:1015F00005C021E030E002C020E030E0C901CF9119
:10160000089597FB072E16F4009406D077FD08D0B6
:1016100026D007FC05D03EF4909581959F4F089504
:10162000709561957F4F0895052E97FB16F40094F1
:1016300006D057FD0CD027D007FC09D07EF490953A
:101640008095709561957F4F8F4F9F4F089550956E
:101650004095309521953F4F4F4F5F4F0895AA1BFE
:10166000BB1B51E107C0AA1FBB1FA617B70710F08D
:10167000A61BB70B881F991F5A95A9F780959095BF
:10168000BC01CD010895A1E21A2EAA1BBB1BFD01CE
:101690000DC0AA1FBB1FEE1FFF1FA217B307E40751
:1016A000F50720F0A21BB30BE40BF50B661F771FA9
:1016B000881F991F1A9469F7609570958095909589
:1016C0009B01AC01BD01CF0108952F923F924F9233
:1016D0005F926F927F928F929F92AF92BF92CF92C2
:1016E000DF92EF92FF920F931F93CF93DF93CDB7CB
:1016F000DEB7CA1BDB0B0FB6F894DEBF0FBECDBF43
:1017000009942A88398848885F846E847D848C8413
:101710009B84AA84B984C884DF80EE80FD800C811C
:101720001B81AA81B981CE0FD11D0FB6F894DEBFFF
:101730000FBECDBFED01089506D084FF0895CB0103
:1017400002D0805F0895AA27992329F4A85F982BD7
:1017500011F480E10895903118F4AD5F9295A3954E
:0E176000990FE8F78A2F99270895F894FFCF84
:10176E00010000000A00000064000000E803000011
:10177E0010270000A086010040420F0080969800BE
:10178E0000E1F50500CA9A3B0000000000000000D1
:10179E0044657369676E3A2043582057616E67003F
:1017AE00496E697469616C697A696E672E2E003EA6
:1017BE0031300057002F004761696E3A20002A0031
:0617CE005057523A2000C2
:00000001FF
